:020000020000FC
:02000000F9C144
:1000AC003134372A323538303336392320E0322F89
:1000BC00330F330F330F330F35B980E51CD06699EE
:1000CC0004C023952C3099F72FE0822F0895F0E08F
:1000DC00ECEAE80F80E0F81F84910895000000001E
:1000EC000000000000000000000000000000000004
:1000FC000000000008950000000000000000000057
:10010C0000000000000000000000000000008A95C4
:10011C00803089F70895282F8AEFEDDF8AEFEBDF27
:10012C008AEFE9DF8AEFE7DF2A952030A9F70895F7
:10013C008AEFF1DF8AEFEFDF8AEFEDDF8AEFEBDF9B
:10014C00089557656C636F6D6520746F20646963E7
:10015C00652120005072657373203220746F2072F9
:10016C006F6C6C212000526F6C6C696E672E2E2E9A
:10017C00200056616C75653A200081BB5F9AAEDF3A
:10018C005F9808955E98F9DF8295F7DF8DE2B3DF13
:10019C0008958591803011F002D0FBCF08955E9ABE
:1001AC00ECDF8295EADF8DE2A6DF089581E0EADFDD
:1001BC00089584E1B0DF5E9880E3DFDF8AE0ABDF97
:1001CC0080E3DBDF8AE0A7DF80E3D7DF8AE0A3DF11
:1001DC0080E2D3DF8DE28FDF88E2D4DF8CE0D2DFE8
:1001EC0081E0D0DF82E097DF86E0CCDF089506E087
:1001FC00000000005BDF843009F008950A95B9F324
:10020C00F7CFB1E0A0E0A80F9C9193959C939091AF
:10021C0000019395909300010895B1E0A0E0A80F20
:10022C008C91089590E0909300019093010190932C
:10023C000201909303019093040190930501909314
:10024C0006010895436C656172696E672E2E2E004F
:10025C00546F74616C207468726F77733A004E62DD
:10026C0072206F66203127733A004E6272206F66DF
:10027C00203227733A004E6272206F662033277348
:10028C003A004E6272206F66203427733A004E6239
:10029C0072206F66203527733A004E6272206F66AB
:1002AC00203627733A00BEDF0895303132333435AF
:1002BC0036373839414243444546F2E0E6EB582E96
:1002CC0082958F70E80F6624F61D849168DF852D6A
:1002DC008F70E6EBF2E0E80F6624F61D84915FDF89
:1002EC00089564DF18DFF2E0ECE553DF80E095DF82
:1002FC00E4DF1EDF5BDF0FDFF2E0EAE64ADF81E0DE
:10030C008CDFDBDF15DF52DF06DFF2E0E6E741DFF3
:10031C0082E083DFD2DF0CDF49DFFDDEF2E0E2E8D2
:10032C0038DF83E07ADFC9DF03DF40DFF4DEF2E0A1
:10033C00EEE82FDF84E071DFC0DFFADE37DFEBDEC3
:10034C00F2E0EAE926DF85E068DFB7DFF1DE2EDFD9
:10035C00E2DEF2E0E6EA1DDF86E05FDFAEDFE8DE3C
:10036C0025DF089523DFD7DEF2E0E0E512DFE0DEE3
:10037C0059DF08954D6F6E69746F72003E303030E6
:10038C00303A2000089592DE833049F08B3039F0FA
:10039C008F3011F4382EF7CF8315A9F3382E08952A
:1003AC008EE3FDDE8B2F89DF8A2F87DF8AE3F7DE72
:1003BC000895FCDEB0DEF3E0E0E8EBDEB9DEB0E0A1
:1003CC00A0E0F4DEA8DEECDF8D9177DFDCDF83309C
:1003DC0051F08B3029F07BDE8053B82FAA27F1CF58
:1003EC0088EC99DEEECF08950FEF0DBF0AE00EBF3B
:1003FC000E9405020E94DF000E94590107C000EF15
:10040C0004B900BB6E98569A579A0895F1E0EEE441
:10041C00C0DE8EDECBDE7FDEF1E0E0E6BADE0E94EF
:10042C005C0094E0981781F00E945C0098E09817AB
:10043C00E9F00E945C0096E09817D1F00E945C00F5
:10044C009AE09817B9F0EBCFB1DE65DEF1E0E2E7A8
:10045C00A0DECDDE802FD5DEA9DE5DDEF1E0EEE79D
:10046C0098DE802F805D9BDE63DE06C03ADF04C021
:10047C0079DF02C09EDF00C099DE4DDEF1E0E0E6E0
:04048C0088DECDCF6A
:00000001FF
