S00C00006C6162362E73726563B3
S113000055C000006EC000006CC000006AC0000053
S113001068C0000066C0000064C0000062C0000048
S113002060C000005EC000005CC000005AC0000058
S113003058C0000056C0000054C0000052C0000068
S113004050C000004EC000004CC000004AC0000078
S113005048C0000046C0000044C0000042C0000088
S113006040C000003EC000003CC000003AC0000098
S113007038C000000BC2000034C0000032C00000D1
S113008030C000002EC000002CC000002AC00000B8
S113009028C0000026C0000024C0000022C00000C8
S11300A020C000001EC000001CC0000011241FBEA0
S11300B0CFEFDAE0DEBFCDBF11E0A0E0B1E0E0E0D9
S11300C0FBE002C005900D92A034B107D9F721E0FE
S11300D0A0E4B1E001C01D92A935B207E1F754D004
S11300E00DC58ECF000000000000000000000000DD
S11300F0000000000000000000000000089500005F
S113010000000000000000000000000000000000EB
S11301100000000000008A95803089F70895282F98
S11301208AEFEDDF8AEFEBDF8AEFE9DF8AEFE7DFC3
S11301302A952030A9F708958AEFF1DF8AEFEFDFDF
S11301408AEFEDDF8AEFEBCF089577D10FC10895E1
S1130150EF92FF920F931F93CF937C018B01C42FD7
S113016080E0FFD0F8D0C7012ED160E081E022D139
S1130170C80129D1CC2311F08C2FDEDFCF911F9140
S11301800F91FF90EF900895F1D0DFDF9CD12BD138
S113019060E080E00FD141E069E171E082E091E04C
S11301A0D7DF0F2EF5E2FF2EF02D0AE011E0C2E4B6
S11301B0D1E0DD24D3946894EE24E1F842D1082EF2
S11301C0000C990BAA0BBB0B809353019093540121
S11301D0A0935501B093560180914001813099F16B
S11301E020F0823009F461C08BC08DD11F92FF9240
S11301F01F928F931F930F93DF93CF93A7D140E068
S1130200BE018FE091E0A4DF80E000D18DB79EB7FE
S113021008960FB6F8949EBF0FBE8DBF8091530110
S113022090915401A0915501B0915601C297A10536
S1130230B10531F468D1811103C0D092410160C08D
S1130240109241015DC05FD11F92FF921F928F9364
S11302501F930F93DF93CF9379D140E0BE018AE1DE
S113026091E076DF50D1D2D04ED12DB73EB7285F82
S11302703F4F0FB6F8943EBF0FBE2DBF882319F031
S1130280E09241013DC08091530190915401A091AD
S11302905501B0915601C197A105B10519F4109209
S11302A041012EC0D09241012BC02DD11F92FF924B
S11302B01F928F931F930F93DF93CF9347D140E007
S11302C0BE0184E291E044DF1ED1A0D02DB73EB739
S11302D0285F3F4F0FB6F8943EBF0FBE2DBF8091ED
S11302E0530190915401A0915501B0915601C197C9
S11302F0A105B10519F41092410102C0E092410137
S1130300809141018093400159CF91B39F70807FC8
S1130310892B81BB8BB180688BB98BB9E3DE8BB140
S11303208F778BB98BB90895CF93C62F811105C0F0
S11303308BB18F7B8BB98BB904C08BB180648BB9C3
S11303408BB98C2FE2DF8C2F8295807FDEDF8DE2EC
S1130350D6DECF91089561E080E0E6DF82E0DFCE73
S11303600895682F6C6080E0DFCF089580EF80BB34
S113037080EC8AB984E1D3DE8BB18F7B8BB98BB9E6
S113038080E3C3DF8AE0CBDE80E3BFDF8AE0C7DE41
S113039080E3BBDF8AE0C3DE80E2B7DF8DE2AFDE5D
S11303A068E280E0C1DF80E0DCDFD5DF66E080E08A
S11303B0BBCF089520E4829FC00111246068682B9C
S11303C080E0B2CF0895CF93DF93FC016081662370
S11303D039F0EC01219681E0A7DF69916111FBCF2F
S11303E0DF91CF9108953E9AE0E9F0E08081806842
S11303F08083808189608083109299001092980094
S1130400E1E9F0E080818360808308952FEF829F8B
S1130410C00111249C013695279536952795ABE7A5
S1130420B4E185D0969587959093580180935701B0
S1130430909399008093980008951DB880EF84B933
S113044008950F931F93CF93DF93C0E0D0E085B15D
S1130450282F2F70CE0182959295907F9827807FC8
S11304609827822B85B981E05ADE669B05C0FE0180
S1130470ED5CFE4F808105C02196CC30D10539F763
S113048080E0DF91CF911F910F9108951F920F92F9
S11304900FB60F9211242F938F939F93209178007E
S11304A08091790090E0982F8827820F911D909376
S11304B00101809300019F918F912F910F900FBEA6
S11304C00F901F901895ECE7F0E0808180648083A2
S11304D0808181608083EAE7F0E0808187608083A7
S11304E0808180628083808188608083808180684D
S11304F0808383E080937E001092D800789480817A
S11305008064808308952091000130910101275176
S11305103109ADECBCEC0BD09695879596958795F3
S1130520969587958536910508F080E00895A29FF9
S1130530B001B39FC001A39F700D811D1124911DB3
S1130540B29F700D811D1124911D0895AEE0B0E09D
S1130550EBEAF2E0AAC20D891E8986E08C831A8335
S113056009838FEF9FE79E838D83AE01475E5F4FC4
S11305706F89788DCE01019608D0EF81F885E00F60
S1130580F11F10822E96E4E0ACC2ABE0B0E0EAECDE
S1130590F2E07DC26C017B018A01FC0117821682A4
S11305A0838181FFBFC1CE0101963C01F601938195
S11305B0F70193FD859193FF81917F01882309F4CD
S11305C0ADC1853239F493FD859193FF81917F010B
S11305D0853221F4B60190E0C0D1E8CF912C212CD2
S11305E0312CFFE1F315D8F08B3279F038F48032F6
S11305F079F08332A1F4232D20611DC08D3261F086
S1130600803369F4232D216016C0832D8260382E37
S1130610E32DE4603E2E2AC0F32DF8601DC037FCA4
S11306202DC020ED280F2A3040F08E32B9F436FC6C
S113063075C1232D2064322E19C036FE06C08AE00F
S1130640989E200D1124922E11C0EAE02E9E200DBA
S11306501124222EF32DF0623F2E08C08C3621F493
S1130660832D8068382E02C0883641F4F70193FD4B
S1130670859193FF81917F018111B3CF982F9F7D45
S11306809554933028F40C5F1F4F9FE399830DC05A
S1130690833631F0833771F0833509F055C020C0BB
S11306A0F801808189830E5F1F4F88248394912CE5
S11306B0530112C02801F2E04F0E511CF801A08032
S11306C0B18036FE03C0692D70E002C06FEF7FEF8A
S11306D0C50138D14C018201F32DFF773F2E15C09F
S11306E0280122E0420E511CF801A080B18036FEA0
S11306F003C0692D70E002C06FEF7FEFC50117D111
S11307004C01F32DF0683F2E820133FC19C0822D79
S113071090E088169906A0F4B60180E290E01DD11D
S11307202A94F5CFF50137FC859137FE81915F015D
S1130730B60190E012D121102A9421E0821A910886
S11307408114910479F7E1C0843611F0893639F5C2
S1130750F80137FE07C060817181828193810C5F4B
S11307601F4F08C060817181072E000C880B990B04
S11307700E5F1F4FF32DFF763F2E97FF09C0909514
S11307808095709561957F4F8F4F9F4FF0683F2EF6
S11307902AE030E0A3011DD1882E861844C0853795
S11307A031F4232D2F7EB22E2AE030E025C0932D84
S11307B0997FB92E8F36C1F018F4883579F0AEC020
S11307C0803719F0883721F0A9C0E92FE061BE2EE7
S11307D0B4FE0DC0FB2DF460BF2E09C034FE0AC068
S11307E0292F2660B22E06C028E030E005C020E1A3
S11307F030E002C020E132E0F801B7FE07C06081BA
S11308007181828193810C5F1F4F06C06081718169
S113081080E090E00E5F1F4FA301DBD0882E861886
S1130820FB2DFF773F2E36FE0DC0232D2E7FA22EEB
S1130830891458F434FE0BC032FC09C0832D8E7E1B
S1130840A82E05C0B82CA32C03C0B82C01C0B92C09
S1130850A4FE0FC0FE01E80DF11D8081803321F458
S11308609A2D997EA92E09C0A2FE06C0B394B39412
S113087004C08A2D867809F0B394A3FC10C0A0FEAE
S113088006C0B21480F4280C922C9B180DC0B2142C
S113089058F4B60180E290E060D0B394F8CFB2147B
S11308A018F42B1802C0982C212CA4FE0FC0B601FA
S11308B080E390E052D0A2FE16C0A1FC03C088E7FA
S11308C090E002C088E590E0B6010CC08A2D8678DD
S11308D051F0A1FE02C08BE201C080E2A7FC8DE2D0
S11308E0B60190E03AD0891430F4B60180E390E088
S11308F034D09A94F8CF8A94F301E80DF11D8081E5
S1130900B60190E02AD08110F6CF222009F44ECE11
S1130910B60180E290E021D02A94F7CFF6018681D7
S1130920978102C08FEF9FEF2B96E2E1CCC0FC01D0
S11309300590615070400110D8F7809590958E0F06
S11309409F1F0895FC016150704001900110D8F779
S1130950809590958E0F9F1F08950F931F93CF93AB
S1130960DF93FB01238121FD03C08FEF9FEF2CC098
S113097022FF16C0468157812481358142175307CF
S113098044F4A081B1819D012F5F3F4F31832083C7
S11309908C93268137812F5F3F4F3783268314C082
S11309A08B01EC01FB010084F185E02D0995892B75
S11309B0E1F6D80116968D919C911797019617969A
S11309C09C938E931697CE01DF91CF911F910F9137
S11309D00895FA01AA27283051F1203181F1E894D1
S11309E06F936E7F6E5F7F4F8F4F9F4FAF4FB1E01E
S11309F03ED0B4E03CD0670F781F891F9A1FA11D19
S1130A00680F791F8A1F911DA11D6A0F711D811D19
S1130A10911DA11D20D009F468943F912AE0269FDE
S1130A2011243019305D3193DEF6CF010895462F3D
S1130A304770405D4193B3E00FD0C9F7F6CF462F1E
S1130A404F70405D4A3318F0495D31FD4052419387
S1130A5002D0A9F7EACFB4E0A69597958795779544
S1130A606795BA95C9F700976105710508959B01CB
S1130A70AC010A2E06945795479537952795BA9554
S1130A80C9F7620F731F841F951FA01D08952F922D
S1130A903F924F925F926F927F928F929F92AF920A
S1130AA0BF92CF92DF92EF92FF920F931F93CF9357
S1130AB0DF93CDB7DEB7CA1BDB0B0FB6F894DEBFEE
S1130AC00FBECDBF09942A88398848885F846E8414
S1130AD07D848C849B84AA84B984C884DF80EE805E
S1130AE0FD800C811B81AA81B981CE0FD11D0FB667
S1130AF0F894DEBF0FBECDBFED010895F894FFCF8B
S1130B00DD0057656C636F6D650025752563004DC9
S1130B106F746F72206F66663A004D6F746F722047
S1130B206F6E3A004D6F746F722072756E6E696EDF
S1130B30673A003134372A323538303336392300B6
S9030000FC
